:0C00D800040C7679383804080E0D0B0774
:1000B400D3EF9400EE9400401AE4FCFDC3ED947D6C
:1000C400EC94005007ED1D70F31C80F0EF1F70E0FE
:0300D4001E80DDAE
:0100D7002206
:10008F00E4FAFB74082BF8E6F5B0740C2BF8E6F5E0
:10009F00A07F1E7E001200B40BBB00010AEB6404AC
:0500AF004A70E080DB57
:03000000020003F8
:0C000300787FE4F6D8FD75810F02004AFA
:10000F0002008FE493A3F8E493A34003F68001F278
:10001F0008DFF48029E493A3F85407240CC8C333F2
:10002F00C4540F4420C8834004F456800146F6DFC1
:10003F00E4800B01020408102040809000D8E47E79
:10004F00019360BCA3FF543F30E509541FFEE493B6
:10005F00A360010ECF54C025E060A840B8E493A37D
:10006F00FAE493A3F8E493A3C8C582C8CAC583CAA8
:10007F00F0A3C8C582C8CAC583CADFE9DEE780BE60
:0100E400001B
:00000001FF
