:0C010D000A083F065B4F666D7D077F6FA0
:03000B0002009A56
:10009A00C0E0C0F0C0D075D000C000758C3D758A34
:1000AA00B00513E513B414057513000512E512B46F
:1000BA003C03751200E51275F00A842408F8E6F587
:1000CA0080E51275F00A84740825F0F8E6F5A0D0E8
:0800DA0000D0D0D0F0D0E032DC
:1000E200758901758C3D758AB0E51275F00A842414
:1000F20008F8E6F580E51275F00A84740825F0F830
:0B010200E6F5A0D2AFD2A9D28C80FE9F
:0300000002000EED
:0C000E00787FE4F6D8FD758113020055E0
:10001A000200E2E493A3F8E493A34003F68001F21A
:10002A0008DFF48029E493A3F85407240CC8C333E7
:10003A00C4540F4420C8834004F456800146F6DFB6
:10004A00E4800B010204081020408090010DE47E38
:10005A00019360BCA3FF543F30E509541FFEE493AB
:10006A00A360010ECF54C025E060A840B8E493A372
:10007A00FAE493A3F8E493A3C8C582C8CAC583CA9D
:10008A00F0A3C8C582C8CAC583CADFE9DEE780BE55
:0101190000E5
:00000001FF
