:1000C40010083F065B4F666D7D077F6F777C395E56
:0200D400797140
:03000300020006F2
:03000600B284328F
:030013000200A246
:1000A200C0E0C0D075D000C000051874082518F84B
:1000B200E6F5A0E518B40F03751800D000D0D0D033
:0200C200E0322A
:1000D700E4F5A0C284D2AFD288D2A8D28AD2AA80AD
:0100E700FE1A
:03000000020016E5
:0C001600787FE4F6D8FD75811802005DCB
:100022000200D7E493A3F8E493A34003F68001F21D
:1000320008DFF48029E493A3F85407240CC8C333DF
:10004200C4540F4420C8834004F456800146F6DFAE
:10005200E4800B01020408102040809000C4E47E7A
:10006200019360BCA3FF543F30E509541FFEE493A3
:10007200A360010ECF54C025E060A840B8E493A36A
:10008200FAE493A3F8E493A3C8C582C8CAC583CA95
:10009200F0A3C8C582C8CAC583CADFE9DEE780BE4D
:0100D6000029
:00000001FF
