:06000300010805010901DE
:03000B0002009A56
:10009A00C0E0C0D0050AE50AB50904C2A0800AE595
:0E00AA000AB50805750A00D2A0D0D0D0E03209
:0E00B800758902758A38D2AFD2A9D28C80FE2B
:0300000002000EED
:0C000E00787FE4F6D8FD75810A020055E9
:10001A000200B8E493A3F8E493A34003F68001F244
:10002A0008DFF48029E493A3F85407240CC8C333E7
:10003A00C4540F4420C8834004F456800146F6DFB6
:10004A00E4800B0102040810204080900003E47E43
:10005A00019360BCA3FF543F30E509541FFEE493AB
:10006A00A360010ECF54C025E060A840B8E493A372
:10007A00FAE493A3F8E493A3C8C582C8CAC583CA9D
:10008A00F0A3C8C582C8CAC583CADFE9DEE780BE55
:0100090000F6
:00000001FF
