:03000000020003F8
:0C000300787FE4F6D8FD75811102004AF8
:0E00CD00050D1206FE124505080010203040F9
:10008F00D3EF9400EE94004015E4FDFC0DBD00018C
:0E009F000CED647D4C70F5EF1F70E51E80E2E5
:0100AD002230
:1000AE00E4FBE4FA74082BF8E6F5B0740D2BF8E6D1
:0F00BE00F5A07F2C7E0112008F0ABA05E780E3C0
:10000F000200AEE493A3F8E493A34003F68001F259
:10001F0008DFF48029E493A3F85407240CC8C333F2
:10002F00C4540F4420C8834004F456800146F6DFC1
:10003F00E4800B01020408102040809000CDE47E84
:10004F00019360BCA3FF543F30E509541FFEE493B6
:10005F00A360010ECF54C025E060A840B8E493A37D
:10006F00FAE493A3F8E493A3C8C582C8CAC583CAA8
:10007F00F0A3C8C582C8CAC583CADFE9DEE780BE60
:0100DB000024
:00000001FF
